{
  "contractName": "EthVoting",
  "abi": [
    {
      "anonymous": false,
      "inputs": [
        {
          "indexed": true,
          "internalType": "string",
          "name": "eventType",
          "type": "string"
        },
        {
          "indexed": false,
          "internalType": "uint256",
          "name": "_proposalId",
          "type": "uint256"
        },
        {
          "indexed": false,
          "internalType": "uint256",
          "name": "_limitTime",
          "type": "uint256"
        }
      ],
      "name": "ProposeEvt",
      "type": "event"
    },
    {
      "anonymous": false,
      "inputs": [
        {
          "indexed": true,
          "internalType": "string",
          "name": "eventType",
          "type": "string"
        },
        {
          "indexed": false,
          "internalType": "uint256",
          "name": "_proposalI",
          "type": "uint256"
        },
        {
          "indexed": false,
          "internalType": "uint256",
          "name": "_time",
          "type": "uint256"
        }
      ],
      "name": "Proposeque",
      "type": "event"
    },
    {
      "anonymous": false,
      "inputs": [
        {
          "indexed": true,
          "internalType": "string",
          "name": "eventType",
          "type": "string"
        },
        {
          "indexed": false,
          "internalType": "address",
          "name": "_voter",
          "type": "address"
        },
        {
          "indexed": false,
          "internalType": "uint256",
          "name": "timestamp",
          "type": "uint256"
        }
      ],
      "name": "VoteEvt",
      "type": "event"
    },
    {
      "inputs": [
        {
          "internalType": "uint256",
          "name": "",
          "type": "uint256"
        }
      ],
      "name": "proposals",
      "outputs": [
        {
          "internalType": "address",
          "name": "chairperson",
          "type": "address"
        },
        {
          "internalType": "string",
          "name": "pName",
          "type": "string"
        },
        {
          "internalType": "string",
          "name": "pCtx",
          "type": "string"
        },
        {
          "internalType": "uint256",
          "name": "voteCount",
          "type": "uint256"
        },
        {
          "internalType": "bool",
          "name": "initialized",
          "type": "bool"
        },
        {
          "internalType": "uint256",
          "name": "limitTime",
          "type": "uint256"
        },
        {
          "internalType": "uint256",
          "name": "supportnum",
          "type": "uint256"
        },
        {
          "internalType": "uint256",
          "name": "pass",
          "type": "uint256"
        }
      ],
      "stateMutability": "view",
      "type": "function",
      "constant": true
    },
    {
      "inputs": [
        {
          "internalType": "address",
          "name": "",
          "type": "address"
        }
      ],
      "name": "voters",
      "outputs": [
        {
          "internalType": "address",
          "name": "delegate",
          "type": "address"
        },
        {
          "internalType": "uint256",
          "name": "voteTimeStamp",
          "type": "uint256"
        },
        {
          "internalType": "bool",
          "name": "initialized",
          "type": "bool"
        },
        {
          "internalType": "bool",
          "name": "oppose",
          "type": "bool"
        }
      ],
      "stateMutability": "view",
      "type": "function",
      "constant": true
    },
    {
      "inputs": [
        {
          "internalType": "string",
          "name": "_pName",
          "type": "string"
        },
        {
          "internalType": "string",
          "name": "_pCtx",
          "type": "string"
        },
        {
          "internalType": "uint256",
          "name": "_limitTime",
          "type": "uint256"
        }
      ],
      "name": "createProposal",
      "outputs": [
        {
          "internalType": "uint256",
          "name": "",
          "type": "uint256"
        }
      ],
      "stateMutability": "nonpayable",
      "type": "function"
    },
    {
      "inputs": [
        {
          "internalType": "uint256",
          "name": "pId",
          "type": "uint256"
        }
      ],
      "name": "tdoVoting",
      "outputs": [],
      "stateMutability": "nonpayable",
      "type": "function"
    },
    {
      "inputs": [
        {
          "internalType": "uint256",
          "name": "pId",
          "type": "uint256"
        }
      ],
      "name": "fdoVoting",
      "outputs": [],
      "stateMutability": "nonpayable",
      "type": "function"
    },
    {
      "inputs": [
        {
          "internalType": "uint256",
          "name": "pId",
          "type": "uint256"
        },
        {
          "internalType": "address",
          "name": "voterAddr",
          "type": "address"
        }
      ],
      "name": "queryVoting",
      "outputs": [
        {
          "internalType": "uint256",
          "name": "",
          "type": "uint256"
        }
      ],
      "stateMutability": "view",
      "type": "function",
      "constant": true
    },
    {
      "inputs": [
        {
          "internalType": "address",
          "name": "voterAddr",
          "type": "address"
        }
      ],
      "name": "oppose",
      "outputs": [
        {
          "internalType": "bool",
          "name": "",
          "type": "bool"
        }
      ],
      "stateMutability": "view",
      "type": "function",
      "constant": true
    },
    {
      "inputs": [],
      "name": "getBlockTime",
      "outputs": [
        {
          "internalType": "uint256",
          "name": "",
          "type": "uint256"
        }
      ],
      "stateMutability": "view",
      "type": "function",
      "constant": true
    },
    {
      "inputs": [
        {
          "internalType": "uint256",
          "name": "pId",
          "type": "uint256"
        }
      ],
      "name": "getProposalName",
      "outputs": [
        {
          "internalType": "string",
          "name": "",
          "type": "string"
        }
      ],
      "stateMutability": "view",
      "type": "function",
      "constant": true
    },
    {
      "inputs": [
        {
          "internalType": "uint256",
          "name": "pId",
          "type": "uint256"
        }
      ],
      "name": "getProposalCtx",
      "outputs": [
        {
          "internalType": "string",
          "name": "",
          "type": "string"
        }
      ],
      "stateMutability": "view",
      "type": "function",
      "constant": true
    },
    {
      "inputs": [
        {
          "internalType": "uint256",
          "name": "pId",
          "type": "uint256"
        }
      ],
      "name": "getProposalVCnt",
      "outputs": [
        {
          "internalType": "uint256",
          "name": "",
          "type": "uint256"
        }
      ],
      "stateMutability": "view",
      "type": "function",
      "constant": true
    },
    {
      "inputs": [
        {
          "internalType": "uint256",
          "name": "pId",
          "type": "uint256"
        }
      ],
      "name": "getProposalLimit",
      "outputs": [
        {
          "internalType": "uint256",
          "name": "",
          "type": "uint256"
        }
      ],
      "stateMutability": "view",
      "type": "function",
      "constant": true
    },
    {
      "inputs": [
        {
          "internalType": "uint256",
          "name": "pId",
          "type": "uint256"
        }
      ],
      "name": "get1",
      "outputs": [
        {
          "internalType": "address",
          "name": "",
          "type": "address"
        }
      ],
      "stateMutability": "view",
      "type": "function",
      "constant": true
    },
    {
      "inputs": [],
      "name": "blocktimemap",
      "outputs": [
        {
          "internalType": "uint256[]",
          "name": "",
          "type": "uint256[]"
        }
      ],
      "stateMutability": "view",
      "type": "function",
      "constant": true
    },
    {
      "inputs": [
        {
          "internalType": "uint256",
          "name": "pId",
          "type": "uint256"
        }
      ],
      "name": "numq",
      "outputs": [
        {
          "internalType": "bool",
          "name": "",
          "type": "bool"
        }
      ],
      "stateMutability": "view",
      "type": "function",
      "constant": true
    },
    {
      "inputs": [
        {
          "internalType": "uint256",
          "name": "pId",
          "type": "uint256"
        }
      ],
      "name": "tong",
      "outputs": [
        {
          "internalType": "uint256",
          "name": "",
          "type": "uint256"
        }
      ],
      "stateMutability": "nonpayable",
      "type": "function"
    },
    {
      "inputs": [
        {
          "internalType": "uint256",
          "name": "pId",
          "type": "uint256"
        }
      ],
      "name": "butong",
      "outputs": [
        {
          "internalType": "uint256",
          "name": "",
          "type": "uint256"
        }
      ],
      "stateMutability": "nonpayable",
      "type": "function"
    },
    {
      "inputs": [
        {
          "internalType": "address",
          "name": "voterAddr",
          "type": "address"
        }
      ],
      "name": "nume",
      "outputs": [
        {
          "internalType": "uint256",
          "name": "",
          "type": "uint256"
        }
      ],
      "stateMutability": "view",
      "type": "function",
      "constant": true
    },
    {
      "inputs": [
        {
          "internalType": "address",
          "name": "voterAddr",
          "type": "address"
        }
      ],
      "name": "numr",
      "outputs": [
        {
          "internalType": "uint256",
          "name": "",
          "type": "uint256"
        },
        {
          "internalType": "string",
          "name": "",
          "type": "string"
        },
        {
          "internalType": "uint256",
          "name": "",
          "type": "uint256"
        },
        {
          "internalType": "bool",
          "name": "",
          "type": "bool"
        },
        {
          "internalType": "uint256",
          "name": "",
          "type": "uint256"
        }
      ],
      "stateMutability": "view",
      "type": "function",
      "constant": true
    },
    {
      "inputs": [],
      "name": "host",
      "outputs": [
        {
          "internalType": "address",
          "name": "",
          "type": "address"
        }
      ],
      "stateMutability": "view",
      "type": "function",
      "constant": true
    }
  ],
  "bytecode": "0x608060405234801561001057600080fd5b50612422806100206000396000f3fe608060405234801561001057600080fd5b506004361061012c5760003560e01c80636f2a064c116100ad578063a25fde2111610071578063a25fde21146103e8578063a3ec138d14610404578063e623759014610437578063f437bc5914610453578063f7cbc390146104715761012c565b80636f2a064c1461030657806383467f651461033657806387ceff091461036a5780638eb7c143146103885780639c117f0f146103b85761012c565b806333311aee116100f457806333311aee146102285780633c795afc14610258578063429b92bf146102885780634873cd62146102b85780635a040610146102d65761012c565b8063013cf08b146101315780630ce0ebf414610168578063101778d414610198578063245a1f64146101c85780632efc1587146101f8575b600080fd5b61014b60048036038101906101469190611a52565b6104a1565b60405161015f989796959493929190611dfc565b60405180910390f35b610182600480360381019061017d91906119d3565b610626565b60405161018f9190611ff5565b60405180910390f35b6101b260048036038101906101ad9190611a52565b610789565b6040516101bf9190611ff5565b60405180910390f35b6101e260048036038101906101dd9190611a52565b6107a9565b6040516101ef9190611f18565b60405180910390f35b610212600480360381019061020d91906119aa565b61082c565b60405161021f9190611ff5565b60405180910390f35b610242600480360381019061023d9190611a52565b610878565b60405161024f9190611f33565b60405180910390f35b610272600480360381019061026d9190611a7b565b610920565b60405161027f9190611ff5565b60405180910390f35b6102a2600480360381019061029d9190611a52565b6109d7565b6040516102af9190611f33565b60405180910390f35b6102c0610a7f565b6040516102cd9190611ef6565b60405180910390f35b6102f060048036038101906102eb9190611a52565b610ad7565b6040516102fd9190611ff5565b60405180910390f35b610320600480360381019061031b9190611a52565b610be1565b60405161032d9190611ff5565b60405180910390f35b610350600480360381019061034b91906119aa565b610c01565b604051610361959493929190612010565b60405180910390f35b610372610e0a565b60405161037f9190611ff5565b60405180910390f35b6103a2600480360381019061039d9190611a52565b610e12565b6040516103af9190611ff5565b60405180910390f35b6103d260048036038101906103cd9190611a52565b610f1b565b6040516103df9190611de1565b60405180910390f35b61040260048036038101906103fd9190611a52565b610f5b565b005b61041e600480360381019061041991906119aa565b6113c9565b60405161042e9493929190611eb1565b60405180910390f35b610451600480360381019061044c9190611a52565b611433565b005b61045b6117c7565b6040516104689190611de1565b60405180910390f35b61048b600480360381019061048691906119aa565b6117cf565b6040516104989190611f18565b60405180910390f35b60016020528060005260406000206000915090508060000160009054906101000a900473ffffffffffffffffffffffffffffffffffffffff16908060010180546104ea906122bf565b80601f0160208091040260200160405190810160405280929190818152602001828054610516906122bf565b80156105635780601f1061053857610100808354040283529160200191610563565b820191906000526020600020905b81548152906001019060200180831161054657829003601f168201915b505050505090806002018054610578906122bf565b80601f01602080910402602001604051908101604052809291908181526020018280546105a4906122bf565b80156105f15780601f106105c6576101008083540402835291602001916105f1565b820191906000526020600020905b8154815290600101906020018083116105d457829003601f168201915b5050505050908060030154908060040160009054906101000a900460ff16908060050154908060060154908060070154905088565b60008042905060006001600083815260200190815260200160002090508581600101908051906020019061065b929190611828565b5084816002019080519060200190610674929190611828565b5060018160040160006101000a81548160ff021916908315150217905550338160000160006101000a81548173ffffffffffffffffffffffffffffffffffffffff021916908373ffffffffffffffffffffffffffffffffffffffff16021790555083426106e19190612154565b8160050181905550600081600301819055506000816006018190555060008160070181905550600042908060018154018082558091505060019003906000526020600020016000909190919091505560405161073c90611db7565b60405180910390207fbc0e6e5d3bae05319a46934c70314dba18cc2304e08b29496d03832071aff7e0838660405161077592919061206a565b60405180910390a281925050509392505050565b600060016000838152602001908152602001600020600301549050919050565b60006007600a600160008581526020019081526020016000206003015460016000868152602001908152602001600020600601546107e791906121aa565b6107f191906121db565b108015610814575060006001600084815260200190815260200160002060030154145b156108225760009050610827565b600190505b919050565b6000600260008373ffffffffffffffffffffffffffffffffffffffff1673ffffffffffffffffffffffffffffffffffffffff168152602001908152602001600020600101549050919050565b606060016000838152602001908152602001600020600201805461089b906122bf565b80601f01602080910402602001604051908101604052809291908181526020018280546108c7906122bf565b80156109145780601f106108e957610100808354040283529160200191610914565b820191906000526020600020905b8154815290600101906020018083116108f757829003601f168201915b50505050509050919050565b60008015156001600085815260200190815260200160002060040160009054906101000a900460ff161515141561098c576040517f08c379a000000000000000000000000000000000000000000000000000000000815260040161098390611f95565b60405180910390fd5b600260008373ffffffffffffffffffffffffffffffffffffffff1673ffffffffffffffffffffffffffffffffffffffff16815260200190815260200160002060010154905092915050565b60606001600083815260200190815260200160002060010180546109fa906122bf565b80601f0160208091040260200160405190810160405280929190818152602001828054610a26906122bf565b8015610a735780601f10610a4857610100808354040283529160200191610a73565b820191906000526020600020905b815481529060010190602001808311610a5657829003601f168201915b50505050509050919050565b60606000805480602002602001604051908101604052809291908181526020018280548015610acd57602002820191906000526020600020905b815481526020019060010190808311610ab9575b5050505050905090565b60008060016000848152602001908152602001600020600701541115610b32576040517f08c379a0000000000000000000000000000000000000000000000000000000008152600401610b2990611fd5565b60405180910390fd5b6002600160008481526020019081526020016000206007016000828254610b599190612154565b92505081905550604051610b6c90611dcc565b60405180910390207f2e44064e96f8ab94ea71ef62030b0b2e82cf4993bb93ba11248edc1d4301cd1b836001600086815260200190815260200160002060070154604051610bbb92919061206a565b60405180910390a260016000838152602001908152602001600020600701549050919050565b600060016000838152602001908152602001600020600501549050919050565b60006060600080600080600260008873ffffffffffffffffffffffffffffffffffffffff1673ffffffffffffffffffffffffffffffffffffffff168152602001908152602001600020600301600081548110610c86577f4e487b7100000000000000000000000000000000000000000000000000000000600052603260045260246000fd5b90600052602060002001549050600260008873ffffffffffffffffffffffffffffffffffffffff1673ffffffffffffffffffffffffffffffffffffffff16815260200190815260200160002060010154600160008381526020019081526020016000206001016001600084815260200190815260200160002060030154600260008b73ffffffffffffffffffffffffffffffffffffffff1673ffffffffffffffffffffffffffffffffffffffff16815260200190815260200160002060020160019054906101000a900460ff166001600086815260200190815260200160002060070154838054610d76906122bf565b80601f0160208091040260200160405190810160405280929190818152602001828054610da2906122bf565b8015610def5780601f10610dc457610100808354040283529160200191610def565b820191906000526020600020905b815481529060010190602001808311610dd257829003601f168201915b50505050509350955095509550955095505091939590929450565b600042905090565b60008060016000848152602001908152602001600020600701541115610e6d576040517f08c379a0000000000000000000000000000000000000000000000000000000008152600401610e6490611fd5565b60405180910390fd5b60018060008481526020019081526020016000206007016000828254610e939190612154565b92505081905550604051610ea690611dcc565b60405180910390207f2e44064e96f8ab94ea71ef62030b0b2e82cf4993bb93ba11248edc1d4301cd1b836001600086815260200190815260200160002060070154604051610ef592919061206a565b60405180910390a260016000838152602001908152602001600020600701549050919050565b60006001600083815260200190815260200160002060000160009054906101000a900473ffffffffffffffffffffffffffffffffffffffff169050919050565b600260003373ffffffffffffffffffffffffffffffffffffffff1673ffffffffffffffffffffffffffffffffffffffff16815260200190815260200160002060000160009054906101000a900473ffffffffffffffffffffffffffffffffffffffff1673ffffffffffffffffffffffffffffffffffffffff166001600083815260200190815260200160002060000160009054906101000a900473ffffffffffffffffffffffffffffffffffffffff1673ffffffffffffffffffffffffffffffffffffffff161415611062576040517f08c379a000000000000000000000000000000000000000000000000000000000815260040161105990611f55565b60405180910390fd5b600015156001600083815260200190815260200160002060040160009054906101000a900460ff16151514156110cd576040517f08c379a00000000000000000000000000000000000000000000000000000000081526004016110c490611f95565b60405180910390fd5b6000429050806001600084815260200190815260200160002060050154101561112b576040517f08c379a000000000000000000000000000000000000000000000000000000000815260040161112290611f75565b60405180910390fd5b60011515600260003373ffffffffffffffffffffffffffffffffffffffff1673ffffffffffffffffffffffffffffffffffffffff16815260200190815260200160002060020160009054906101000a900460ff16151514156111c2576040517f08c379a00000000000000000000000000000000000000000000000000000000081526004016111b990611fb5565b60405180910390fd5b60006040518060a001604052803373ffffffffffffffffffffffffffffffffffffffff168152602001428152602001600115158152602001600015158152602001600080548060200260200160405190810160405280929190818152602001828054801561124f57602002820191906000526020600020905b81548152602001906001019080831161123b575b5050505050815250905080600260003373ffffffffffffffffffffffffffffffffffffffff1673ffffffffffffffffffffffffffffffffffffffff16815260200190815260200160002060008201518160000160006101000a81548173ffffffffffffffffffffffffffffffffffffffff021916908373ffffffffffffffffffffffffffffffffffffffff1602179055506020820151816001015560408201518160020160006101000a81548160ff02191690831515021790555060608201518160020160016101000a81548160ff02191690831515021790555060808201518160030190805190602001906113469291906118ae565b50905050600180600085815260200190815260200160002060030160008282546113709190612154565b9250508190555060405161138390611da2565b60405180910390207f6e1d6794e13b69f31305f22ea91ab03481b376fdf800c35bb36b6b582c25f19333426040516113bc929190611e88565b60405180910390a2505050565b60026020528060005260406000206000915090508060000160009054906101000a900473ffffffffffffffffffffffffffffffffffffffff16908060010154908060020160009054906101000a900460ff16908060020160019054906101000a900460ff16905084565b600015156001600083815260200190815260200160002060040160009054906101000a900460ff161515141561149e576040517f08c379a000000000000000000000000000000000000000000000000000000000815260040161149590611f95565b60405180910390fd5b600042905080600160008481526020019081526020016000206005015410156114fc576040517f08c379a00000000000000000000000000000000000000000000000000000000081526004016114f390611f75565b60405180910390fd5b60011515600260003373ffffffffffffffffffffffffffffffffffffffff1673ffffffffffffffffffffffffffffffffffffffff16815260200190815260200160002060020160009054906101000a900460ff1615151415611593576040517f08c379a000000000000000000000000000000000000000000000000000000000815260040161158a90611fb5565b60405180910390fd5b60006040518060a001604052803373ffffffffffffffffffffffffffffffffffffffff168152602001428152602001600115158152602001600115158152602001600080548060200260200160405190810160405280929190818152602001828054801561162057602002820191906000526020600020905b81548152602001906001019080831161160c575b5050505050815250905080600260003373ffffffffffffffffffffffffffffffffffffffff1673ffffffffffffffffffffffffffffffffffffffff16815260200190815260200160002060008201518160000160006101000a81548173ffffffffffffffffffffffffffffffffffffffff021916908373ffffffffffffffffffffffffffffffffffffffff1602179055506020820151816001015560408201518160020160006101000a81548160ff02191690831515021790555060608201518160020160016101000a81548160ff02191690831515021790555060808201518160030190805190602001906117179291906118ae565b50905050600180600085815260200190815260200160002060030160008282546117419190612154565b925050819055506001806000858152602001908152602001600020600601600082825461176e9190612154565b9250508190555060405161178190611da2565b60405180910390207f6e1d6794e13b69f31305f22ea91ab03481b376fdf800c35bb36b6b582c25f19333426040516117ba929190611e88565b60405180910390a2505050565b600033905090565b6000600260008373ffffffffffffffffffffffffffffffffffffffff1673ffffffffffffffffffffffffffffffffffffffff16815260200190815260200160002060020160019054906101000a900460ff169050919050565b828054611834906122bf565b90600052602060002090601f016020900481019282611856576000855561189d565b82601f1061186f57805160ff191683800117855561189d565b8280016001018555821561189d579182015b8281111561189c578251825591602001919060010190611881565b5b5090506118aa91906118fb565b5090565b8280548282559060005260206000209081019282156118ea579160200282015b828111156118e95782518255916020019190600101906118ce565b5b5090506118f791906118fb565b5090565b5b808211156119145760008160009055506001016118fc565b5090565b600061192b611926846120c4565b612093565b90508281526020810184848401111561194357600080fd5b61194e84828561227d565b509392505050565b600081359050611965816123be565b92915050565b600082601f83011261197c57600080fd5b813561198c848260208601611918565b91505092915050565b6000813590506119a4816123d5565b92915050565b6000602082840312156119bc57600080fd5b60006119ca84828501611956565b91505092915050565b6000806000606084860312156119e857600080fd5b600084013567ffffffffffffffff811115611a0257600080fd5b611a0e8682870161196b565b935050602084013567ffffffffffffffff811115611a2b57600080fd5b611a378682870161196b565b9250506040611a4886828701611995565b9150509250925092565b600060208284031215611a6457600080fd5b6000611a7284828501611995565b91505092915050565b60008060408385031215611a8e57600080fd5b6000611a9c85828601611995565b9250506020611aad85828601611956565b9150509250929050565b6000611ac38383611d84565b60208301905092915050565b611ad881612235565b82525050565b6000611ae982612104565b611af38185612127565b9350611afe836120f4565b8060005b83811015611b2f578151611b168882611ab7565b9750611b218361211a565b925050600181019050611b02565b5085935050505092915050565b611b4581612247565b82525050565b6000611b568261210f565b611b608185612138565b9350611b7081856020860161228c565b611b79816123ad565b840191505092915050565b6000611b91600483612149565b91507f766f7465000000000000000000000000000000000000000000000000000000006000830152600482019050919050565b6000611bd1601e83612138565b91507f746865206368616972706572736f6e206d6179206e6f74206f626a65637400006000830152602082019050919050565b6000611c11601283612138565b91507f65786365656420766f74696e672074696d6500000000000000000000000000006000830152602082019050919050565b6000611c51601283612138565b91507f70726f706f73616c206e6f7420657869737400000000000000000000000000006000830152602082019050919050565b6000611c91600783612149565b91507f70726f706f7365000000000000000000000000000000000000000000000000006000830152600782019050919050565b6000611cd1600c83612138565b91507f616c726561647920766f746500000000000000000000000000000000000000006000830152602082019050919050565b6000611d11600383612149565b91507f71756500000000000000000000000000000000000000000000000000000000006000830152600382019050919050565b6000611d51601383612138565b91507f497420686173206265656e2064656369646564000000000000000000000000006000830152602082019050919050565b611d8d81612273565b82525050565b611d9c81612273565b82525050565b6000611dad82611b84565b9150819050919050565b6000611dc282611c84565b9150819050919050565b6000611dd782611d04565b9150819050919050565b6000602082019050611df66000830184611acf565b92915050565b600061010082019050611e12600083018b611acf565b8181036020830152611e24818a611b4b565b90508181036040830152611e388189611b4b565b9050611e476060830188611d93565b611e546080830187611b3c565b611e6160a0830186611d93565b611e6e60c0830185611d93565b611e7b60e0830184611d93565b9998505050505050505050565b6000604082019050611e9d6000830185611acf565b611eaa6020830184611d93565b9392505050565b6000608082019050611ec66000830187611acf565b611ed36020830186611d93565b611ee06040830185611b3c565b611eed6060830184611b3c565b95945050505050565b60006020820190508181036000830152611f108184611ade565b905092915050565b6000602082019050611f2d6000830184611b3c565b92915050565b60006020820190508181036000830152611f4d8184611b4b565b905092915050565b60006020820190508181036000830152611f6e81611bc4565b9050919050565b60006020820190508181036000830152611f8e81611c04565b9050919050565b60006020820190508181036000830152611fae81611c44565b9050919050565b60006020820190508181036000830152611fce81611cc4565b9050919050565b60006020820190508181036000830152611fee81611d44565b9050919050565b600060208201905061200a6000830184611d93565b92915050565b600060a0820190506120256000830188611d93565b81810360208301526120378187611b4b565b90506120466040830186611d93565b6120536060830185611b3c565b6120606080830184611d93565b9695505050505050565b600060408201905061207f6000830185611d93565b61208c6020830184611d93565b9392505050565b6000604051905081810181811067ffffffffffffffff821117156120ba576120b961237e565b5b8060405250919050565b600067ffffffffffffffff8211156120df576120de61237e565b5b601f19601f8301169050602081019050919050565b6000819050602082019050919050565b600081519050919050565b600081519050919050565b6000602082019050919050565b600082825260208201905092915050565b600082825260208201905092915050565b600081905092915050565b600061215f82612273565b915061216a83612273565b9250827fffffffffffffffffffffffffffffffffffffffffffffffffffffffffffffffff0382111561219f5761219e6122f1565b5b828201905092915050565b60006121b582612273565b91506121c083612273565b9250826121d0576121cf612320565b5b828204905092915050565b60006121e682612273565b91506121f183612273565b9250817fffffffffffffffffffffffffffffffffffffffffffffffffffffffffffffffff048311821515161561222a576122296122f1565b5b828202905092915050565b600061224082612253565b9050919050565b60008115159050919050565b600073ffffffffffffffffffffffffffffffffffffffff82169050919050565b6000819050919050565b82818337600083830152505050565b60005b838110156122aa57808201518184015260208101905061228f565b838111156122b9576000848401525b50505050565b600060028204905060018216806122d757607f821691505b602082108114156122eb576122ea61234f565b5b50919050565b7f4e487b7100000000000000000000000000000000000000000000000000000000600052601160045260246000fd5b7f4e487b7100000000000000000000000000000000000000000000000000000000600052601260045260246000fd5b7f4e487b7100000000000000000000000000000000000000000000000000000000600052602260045260246000fd5b7f4e487b7100000000000000000000000000000000000000000000000000000000600052604160045260246000fd5b6000601f19601f8301169050919050565b6123c781612235565b81146123d257600080fd5b50565b6123de81612273565b81146123e957600080fd5b5056fea26469706673582212209bd69e077b6ead109a0021744ddbfa8de00678f5af0351ccd1b1d5e09b29821b64736f6c63430008000033",
  "immutableReferences": {},
  "source": "// SPDX-License-Identifier: MIT\r\npragma solidity ^0.8.0;\r\n\r\ncontract EthVoting {\r\n\r\n    //\r\n    struct Voter_lenggaoli {\r\n\t\taddress delegate;    //\r\n        uint voteTimeStamp; //\r\n        bool initialized;   //\r\n\t\tbool oppose;       //\r\n\t\tuint[] id;        //id\r\n    }\r\n\r\n    //\r\n    struct Proposal_lenggaoli {\r\n\t\taddress chairperson;      //\r\n        string pName;        //\r\n\t\tstring pCtx;         //\r\n        uint voteCount;      //\r\n        bool initialized;    //\r\n        uint limitTime;      //\r\n\t\tuint supportnum;     //\r\n\t\tuint pass;           //\r\n    }\r\n\t//\r\n\tuint[] time1;\r\n    //\r\n    mapping(uint => Proposal_lenggaoli) public proposals;\r\n\t//\r\n\tmapping(address=>Voter_lenggaoli) public voters;\r\n\t\r\n\t//\r\n\tevent VoteEvt(string indexed eventType, address _voter, uint timestamp);\r\n\t\r\n\t//\r\n\tevent ProposeEvt(string indexed eventType, uint _proposalId, uint _limitTime);\r\n\r\n\t//\r\n\tevent Proposeque(string indexed eventType,uint _proposalI,uint _time);\r\n\t//\r\n\tfunction createProposal(string memory _pName, string memory _pCtx, uint _limitTime) public returns (uint){\r\n\r\n\t  //\r\n\t  //ID\r\n\t  uint pId = block.timestamp;\r\n\t  Proposal_lenggaoli storage p = proposals[pId];\r\n                p.pName= _pName;\r\n\t\t\t\tp.pCtx= _pCtx;\r\n\t\t\t\tp.initialized= true;\r\n\t\t\t\tp.chairperson=msg.sender;\r\n\t\t\t\tp.limitTime=block.timestamp+ _limitTime;\r\n                p.voteCount= 0;\r\n\t\t\t\tp.supportnum=0;\r\n\t\t\t\tp.pass=0;\r\n\t\t\t\t\r\n\t\t//\r\n\t\ttime1.push(block.timestamp);\r\n      emit ProposeEvt(\"propose\", pId, _limitTime);\r\n      return pId;\r\n\t}\r\n\r\n\t//\r\n\tfunction tdoVoting(uint pId) public {\r\n\r\n\t  //\r\n\t  if (proposals[pId].initialized == false)\r\n\t    revert(\"proposal not exist\");\r\n\t  \r\n\t  uint currentTime = block.timestamp;\r\n\t  \r\n\t  //\r\n\t  if (proposals[pId].limitTime < currentTime)\r\n\t    revert(\"exceed voting time\");\r\n\t  \r\n\t  //\r\n\t  if (voters[msg.sender].initialized == true)\r\n\t   revert(\"already vote\");\r\n\r\n\t  //\r\n\t  Voter_lenggaoli memory voter = Voter_lenggaoli({\r\n\t    voteTimeStamp: block.timestamp,\r\n\t    initialized: true,\r\n\t\tdelegate:msg.sender,\r\n\t\toppose:true,\r\n\t\tid:time1\r\n\t  });\r\n\r\n\t  //\r\n\t  voters[msg.sender] = voter;\r\n\t  proposals[pId].voteCount+=1;\r\n\t  proposals[pId].supportnum+=1;\r\n\t  \r\n\t  emit VoteEvt(\"vote\", msg.sender, block.timestamp);\r\n\t}\t\r\n\r\n\t//\r\n\tfunction fdoVoting(uint pId) public {\r\n\r\n\t  //\r\n\t  if(proposals[pId].chairperson==voters[msg.sender].delegate)\r\n\t  revert(\"the chairperson may not object\");\r\n\r\n\t  //\r\n\t  if (proposals[pId].initialized == false)\r\n\t    revert(\"proposal not exist\");\r\n\t  \r\n\t  uint currentTime = block.timestamp;\r\n\t  \r\n\t  //\r\n\t  if (proposals[pId].limitTime < currentTime)\r\n\t    revert(\"exceed voting time\");\r\n\t  \r\n\t  //\r\n\t  if (voters[msg.sender].initialized == true)\r\n\t   revert(\"already vote\");\r\n\t  \r\n\t  //\r\n\t  Voter_lenggaoli memory voter = Voter_lenggaoli({\r\n\t    voteTimeStamp: block.timestamp,\r\n\t    initialized: true,\r\n\t\tdelegate:msg.sender,\r\n\t\toppose:false,\r\n\t\tid:time1\r\n\t  });\r\n    \r\n\t  //\r\n\t  voters[msg.sender] = voter;\r\n\t  proposals[pId].voteCount+=1;\r\n\t  \r\n\t  emit VoteEvt(\"vote\", msg.sender, block.timestamp);\r\n\t}\t\r\n\r\n\t//\r\n\tfunction queryVoting(uint pId, address voterAddr) public view returns (uint){\r\n\r\n\t  //\r\n\t  if (proposals[pId].initialized == false)\r\n\t    revert(\"proposal not exist\");\r\n\t  \r\n\t  //\r\n\t  return voters[voterAddr].voteTimeStamp;\r\n\t}\r\n\r\n\t//\r\n\tfunction oppose(address voterAddr) public view returns (bool){\r\n\t\treturn voters[voterAddr].oppose;\r\n\t}\t\r\n\t\r\n\t//\r\n    function getBlockTime() public view returns (uint) { \r\n\t\treturn block.timestamp;\r\n    }\r\n\t\r\n    //\r\n    function getProposalName(uint pId) public view returns (string memory) { \r\n\t\treturn proposals[pId].pName;\r\n    } \t\r\n\t\r\n\t//\r\n    function getProposalCtx(uint pId) public view returns (string memory) { \r\n\t\treturn proposals[pId].pCtx;\r\n    }\r\n\t\r\n\t//\r\n    function getProposalVCnt(uint pId) public view returns (uint) { \r\n\t\treturn proposals[pId].voteCount;\r\n    }\r\n\t\r\n\t//\r\n    function getProposalLimit(uint pId) public view returns (uint) { \r\n\t\treturn proposals[pId].limitTime;\r\n    }\r\n\t//\r\n\tfunction get1(uint pId) public view returns(address){\r\n\t\treturn proposals[pId].chairperson;\r\n\t}\r\n\r\n\t//\r\n\tfunction blocktimemap() public view returns (uint[] memory){\r\n\t\treturn time1;\r\n\t}\r\n\r\n\t//\r\n\tfunction numq(uint pId) public view returns (bool){\r\n\t    if((proposals[pId].supportnum/proposals[pId].voteCount)*10 <7\r\n\t\t&&proposals[pId].voteCount==0){\r\n\t\t\treturn false;\r\n\t\t}\r\n\t\treturn true;\r\n\t}\r\n\r\n\t//\r\n\tfunction tong(uint pId) public  returns (uint){\r\n\t\tif(proposals[pId].pass>0)\r\n\t\trevert(\"It has been decided\");\r\n\t\tproposals[pId].pass+=1;\r\n\t\temit Proposeque(\"que\", pId, proposals[pId].pass);\r\n\t\treturn proposals[pId].pass;\r\n\t}\r\n\r\n\t//\r\n\tfunction butong(uint pId) public  returns (uint){\r\n\t\tif(proposals[pId].pass>0)\r\n\t\trevert(\"It has been decided\");\r\n\t\tproposals[pId].pass+=2;\r\n\t\temit Proposeque(\"que\", pId, proposals[pId].pass);\r\n\t\treturn proposals[pId].pass;\r\n\t}\r\n\r\n\t//\r\n\tfunction nume(address voterAddr) public view returns (uint){\r\n\t\treturn voters[voterAddr].voteTimeStamp;\r\n\t}\r\n\r\n\t//\r\n\tfunction numr(address voterAddr)public view returns (uint,string memory,uint,bool,uint){\r\n\t\tuint pId= voters[voterAddr].id[0];\r\n\t\treturn (voters[voterAddr].voteTimeStamp,\r\n\t\tproposals[pId].pName,\r\n\t\tproposals[pId].voteCount,\r\n\t\tvoters[voterAddr].oppose,\r\n\t\tproposals[pId].pass);\r\n\t}\r\n\tfunction host() public view returns(address){\r\n\t\treturn msg.sender;\r\n\t}\r\n}",
  "sourcePath": "C:\\Users\\xiachonger\\Desktop\\block1\\contracts\\EthVoting.sol",
  "compiler": {
    "name": "solc",
    "version": "0.8.0+commit.c7dfd78e.Emscripten.clang"
  },
  "schemaVersion": "3.4.3",
  "updatedAt": "2021-12-19T14:57:01.249Z",
  "networkType": "ethereum",
  "devdoc": {
    "kind": "dev",
    "methods": {},
    "version": 1
  },
  "userdoc": {
    "kind": "user",
    "methods": {},
    "version": 1
  }
}